:020000040800F2
:10000000488C002465030008C9D10008D1C000084D
:10001000C1D10008D90E0008C9EC0008000000009A
:1000200000000000000000000000000099D8000857
:100030009119000800000000E9D20008F9D8000872
:100040008303000883030008830300088303000878
:100050008303000883030008830300088303000868
:10006000830300088303000883030008E10E0008EF
:10007000F10E0008010F0008830300088303000845
:100080008303000883030008B90E000883030008F7
:100090008303000883030008830300088303000828
:1000A0008303000883030008830300088303000818
:1000B0008303000879DB000889DB0008830300085C
:1000C00083030008830300088303000883030008F8
:1000D00083030008B9EC00088303000883030008C9
:1000E0008303000883030008000000008303000866
:1000F00083030008830300088303000883030008C8
:10010000830300088303000899DB000883030008C9
:1001100083030008830300088303000883030008A7
:100120008303000883030008830300088303000897
:100130008303000883030008830300088303000887
:1001400000000000000000000000000000000000AF
:100150008303000883030008830300088303000867
:100160008303000883030008830300088303000857
:1001700083030008830300088303000800000000D5
:100180008303000883030008830300088303000837
:100190008303000883030008830300088303000827
:1001A0008303000883030008830300088303000817
:1001B0008303000883030008830300088303000807
:1001C00083030008830300088303000883030008F7
:1001D00083030008830300088303000883030008E7
:1001E00083030008830300088303000883030008D7
:1001F00083030008830300088303000883030008C7
:1002000083030008830300088303000883030008B6
:1002100083030008830300088303000883030008A6
:100220008303000883030008830300080000000024
:100230008303000883030008000000008303000814
:100240008303000883030008830300088303000876
:100250008303000883030008830300088303000866
:100260008303000883030008830300088303000856
:1002700083030008830300088303000800000000D4
:1002800083030008830300088303000800000000C4
:10029000000000008303000800F002F800F052F8AC
:1002A00014A696E8000CB244B344DA4501D100F03C
:1002B00049F8BAE80F000FA696E83000A5EB040550
:1002C00004EB0607AAEB0704A7F101074FEA15158F
:1002D0004FEA3414A4F10104AC4201D300F032F827
:1002E00013F0010F18BFFB1A43F0010300F001F8EF
:1002F000DBE718474469020064690200103A24BF32
:1003000078C878C1FAD8520724BF30C830C144BF7A
:1003100004680C6070470000704700000023002450
:1003200000250026103A28BF78C1FBD8520728BF05
:1003300030C148BF0B6070471FB511F0DBF91FBD1E
:1003400010B510BD00F0E8F81146FFF7F5FF10F00A
:1003500007FE00F006F903B4FFF7F2FF03BC00F05C
:1003600009F900000A4880470A4880470A480047C0
:10037000FEE7FEE7FEE7FEE7FEE7FEE7FEE7FEE755
:10038000FEE7FEE705480649064A074B70470000AE
:10039000A9190008E9D90008990200084886002434
:1003A000488C0024488800244888002453EA020C22
:1003B00000F069802DE9F04B4FF00006002B1FBFC5
:1003C000B3FA83F503FA05F424FA05F65E4012BF8A
:1003D0001643B2FA82F502FA05F4C5F120051EBFF4
:1003E00022FA05FC44EA0C04203556EA044C4FEA94
:1003F000144418BF641C4FF000084FF000099042ED
:1004000071EB030C39D3002919BFB1FA81F701FA56
:1004100007F6B0FA80F700FA07F6C7F120071EBF0B
:1004200020FA07FC46EA0C062037B6FBF4FCA7EBE3
:100430000507103F07F01F0BCBF120062CFA06F63C
:100440000CFA0BFB44BFB3460026202FA4BF5E4628
:100450004FF0000B5BEA060C08BF4FF0010B19EBE5
:100460000B0948EB0608ABFB027C06FB02CC0BFB3E
:1004700003CCC01B71EB0C01C1E70B4602464146A1
:100480004846BDE8F08B13B5084318BF4FF0FF3066
:100490000146AFF30080BDE81C4070474FF00002FA
:1004A00000B5134694469646203922BFA0E80C506A
:1004B000A0E80C50B1F12001BFF4F7AF090728BF45
:1004C000A0E80C5048BF0CC05DF804EB890028BFC1
:1004D00040F8042B08BF704748BF20F8022B11F0EA
:1004E000804F18BF00F8012B704770477047704766
:1004F00010B500F009F8006810BD10B5044600F012
:1005000003F8046010BD000000487047500000244C
:1005100000487047500000247546FFF7F9FFAE46CB
:1005200005006946534620F00700854618B020B5FF
:10053000FFF728FFBDE820404FF000064FF000070E
:100540004FF000084FF0000BAC46ACE8C009ACE837
:10055000C009ACE8C009ACE8C00921F007018D462C
:10056000704710B50446AFF300802046BDE8104048
:10057000FFF7F1BE01491820ABBEFEE726000200DE
:10058000704700000000000080B54FF4807000F05C
:1005900083F880BD0000000080B584B0ADF80E0087
:1005A0009DF80F008DF80C00BDF80E008DF80D00C1
:1005B00040F60040C5F602000290012101910022A0
:1005C00006F0DEF948F24040C2F2004003A90222E0
:1005D0004FF0FF330AF0DCF9019A0298114606F059
:1005E000CFF904B080BD000080B586B0ADF816002C
:1005F0008DED040AADF80E10BDF81600ADF80C0034
:10060000BDF81600ADF80A009DED040AB7EEC00A69
:100610009FED151B20EE010BBCEEC00B8DED010A0A
:1006200001984CF20001C0F6FF710140BDF80C00CA
:1006300040EA9130ADF80C0001996FF39F31BDF89D
:100640000A000843ADF80A00BDF80E0040F400505F
:1006500000F022F8BDF80A0000F01EF8BDF80C000A
:1006600000F01AF806B080BD3A8C30E28E79254051
:1006700080B584B003A901910146019880ED000A7C
:10068000ADF80A1090ED000ABDF80A104FF4804052
:10069000FFF7AAFF04B080BD80B582B0ADF80600B8
:1006A000BDF80600FFF778FF02B080BD0000000033
:1006B00080B54FF4807000F083F880BD000000002A
:1006C00080B584B0ADF80E009DF80F008DF80C00D9
:1006D000BDF80E008DF80D0041F20000C5F60200D5
:1006E00002904FF400410191002206F049F948F2CE
:1006F000B830C2F2004003A902224FF0FF330AF0E3
:1007000047F901990298012206F03AF904B080BD38
:1007100080B586B0ADF816008DED040AADF80E1068
:10072000BDF81600ADF80C00BDF81600ADF80A00D3
:100730009DED040AB7EEC00A9FED151B20EE010BDC
:10074000BCEEC00B8DED010A01984CF20001C0F621
:10075000FF710140BDF80C0040EA9130ADF80C008B
:1007600001996FF39F31BDF80A000843ADF80A0004
:10077000BDF80E0040F4005000F022F8BDF80A0069
:1007800000F01EF8BDF80C0000F01AF806B080BDAD
:100790003A8C30E28E79254080B584B003A901916E
:1007A0000146019880ED000AADF80A1090ED000AAC
:1007B000BDF80A104FF48040FFF7AAFF04B080BDD7
:1007C00080B582B0ADF80600BDF80600FFF778FFEF
:1007D00002B080BD0000000080B584B00390039893
:1007E000006842F20001C4F20201884209D0FFE72A
:1007F0000398006842F20011C4F20201884209D154
:10080000FFE742F20830C4F20200006810F4403FF3
:1008100009D129E046F20830C5F60200006810F45C
:10082000403F21D0FFE708F023FF02900398406883
:100830000190B0F5803F0AD0FFE70198B0F5003F86
:1008400005D0FFE70198B0F5403F07D00AE00398D4
:10085000C1880298B0FBF1F0029004E00298800891
:10086000029000E0FFE75FE04FF40020002106F077
:100870003BFE0290039840680090B0F5802F32D084
:10088000FFE70098B0F5002F2DD0FFE70098B0F5F6
:10089000402F28D0FFE70098B0F5801F23D0FFE756
:1008A0000098B0F5A01F1ED0FFE70098B0F5C01F5C
:1008B00019D0FFE70098B0F5E01F1FD0FFE70098C0
:1008C000B0F5001F1ED0FFE70098B0F5101F1DD037
:1008D000FFE70098B0F5201F1CD0FFE70098B0F5A7
:1008E000301F1BD01EE0039841686FF0010000EA42
:1008F00051410298B0FBF1F0029014E00298000917
:10090000029010E00298400902900CE002988009E1
:10091000029008E00298C009029004E00298000AE0
:10092000029000E0FFE7FFE706F042F841F2030122
:10093000884217D8FFE7029842F60151C0F2311100
:10094000884207D3FFE703980168886840F4807005
:10095000886006E003980168886820F480708860E9
:10096000FFE743E0029840080290029845F61061C4
:10097000C0F25F01884209D8FFE7039800688068E9
:1009800020F440700399096888602EE002984BF6C5
:100990002041C0F2BE0188420AD8FFE703980068F0
:1009A0008068012161F309200399096888601BE0D0
:1009B000029847F64001C0F27D1188420AD8FFE74D
:1009C000039800688068022161F30920039909688F
:1009D000886008E003980068806840F440700399DC
:1009E00009688860FFE7FFE7FFE7FFE704B080BD25
:1009F00080B58AB008900791002005900798049070
:100A0000089800680BF008FC0290089800680BF04A
:100A1000B7FB0190029828B9FFE70198002800F081
:100A2000A880FFE708980068C0688001002836D5D4
:100A3000FFE70898407D012831D1FFE70898007D45
:100A400001282CD1FFE701200490FFE708980068F7
:100A5000006800F040010020B0EB911F1AD1FFE7C1
:100A600005984DF60041C0F20C0188420ED3FFE715
:100A70000899486D40F0100048650899886D40F06D
:100A80000100886501208DF8270076E00598013087
:100A90000590DBE70898016840200860FFE70498AC
:100AA000022813D0FFE7089800680BF0B5FB60B18F
:100AB000FFE7089800680BF08FFB28B9FFE708985C
:100AC00000680BF005FCFFE7FFE7FFE7049801284B
:100AD00013D0FFE7089800680BF052FB60B1FFE706
:100AE000089800680BF078FB28B9FFE708980068C1
:100AF0000BF05AFBFFE7FFE7FFE70498009002289E
:100B000007D0FFE70098032806D1FFE70C200390E9
:100B100005E00820039002E004200390FFE705F0C1
:100B20004FFF0690FFE70898006880680399084225
:100B30001ED0FFE705F044FF0699401A062816D399
:100B4000FFE7089800688068039908420ED0FFE725
:100B50000899486D40F0100048650899886D40F08C
:100B60000100886501208DF8270006E0FFE7DAE73D
:100B7000FFE700208DF82700FFE79DF827000AB067
:100B800080BD00000000000080B582B00190019897
:100B9000806B00900098406D10F0500F4AD1FFE735
:100BA0000099486D40F4007048650098006800683E
:100BB0000007002821D5FFE7009800680BF03CFBF8
:100BC000D0B1FFE700980068C0688004002812D404
:100BD000FFE70099486D20F4807048650098406DEB
:100BE000C004002806D4FFE70099486D40F00100DA
:100BF0004865FFE7FFE7FFE718E000980068C06876
:100C0000800790B9FFE70099486D20F4807048652F
:100C10000098406DC004002806D4FFE70099486D95
:100C200040F001004865FFE7FFE7FFE7009801F0AB
:100C30006BFC10E00098406DC006002804D5FFE76B
:100C4000009801F089FC05E00098C06CC16C019827
:100C50008847FFE7FFE702B080BD0000000000000A
:100C600080B582B001900198806B00900099486D2A
:100C700040F0400048650099886D40F004008865A8
:100C8000009801F069FC02B080BD00000000000087
:100C900080B582B001900198806B0090009801F0BF
:100CA00057FC02B080BD000080B584B0029002986D
:100CB00000680BF091FA0090029800680BF094FA2B
:100CC00000284BD0FFE70098002847D1FFE70298A3
:100CD0000068806800F00D00012809D1FFE7029844
:100CE00000680BF0F9F902980168032008600DE034
:100CF0000299486D40F0100048650299886D40F0F7
:100D00000100886501208DF80F002BE005F058FEEA
:100D10000190FFE7029800688068C007E8B1FFE72C
:100D200005F04EFE0199401A032815D3FFE70298FB
:100D300000688068C00770B1FFE70299486D40F015
:100D4000100048650299886D40F001008865012017
:100D50008DF80F0006E0FFE7DCE7FFE700208DF8E5
:100D60000F00FFE79DF80F0004B080BD00000000F9
:100D700080B586B00490049800680BF035FA00281E
:100D800040F09280FFE70498006880683F21C8F235
:100D9000000108420ED0FFE70499486D40F01000B2
:100DA00048650499886D40F00100886501208DF840
:100DB00017007DE0049800680BF0AAF905F000FE2A
:100DC000039004980168012042F20002C4F202027A
:100DD000914201900CD0FFE7049800684DF6007135
:100DE000CBF6FD710844B0FA80F040090190FFE7AE
:100DF0000198C10746F20030C5F6020000291CBF69
:100E000042F20030C4F202000BF0B2F902900498F2
:100E1000006842F20011C4F20201884206D1FFE7E5
:100E200042F20000C4F20200009003E0049800685F
:100E30000090FFE7009804990968884203D0FFE713
:100E4000029880BBFFE7FFE7049800680068C007CE
:100E500040BBFFE7049800680BF0C6F928B9FFE72C
:100E6000049800680BF054F9FFE705F0A9FD039919
:100E7000401A032815D3FFE7049800680068C007EC
:100E800070B9FFE70499486D40F010004865049977
:100E9000886D40F00100886501208DF8170007E09B
:100EA000FFE7D1E7FFE7FFE700208DF81700FFE736
:100EB0009DF8170006B080BD80B548F28810C2F2D8
:100EC000004001F04DFB48F2EC10C2F2004001F08E
:100ED00047FB80BD00000000FFE7FEE700000000C8
:100EE00080B548F25020C2F2004003F04DFA80BDB8
:100EF00080B548F2C820C2F2004003F045FA80BD38
:100F000080B548F24030C2F2004003F03DFA80BDA7
:100F100083B002900298016801201022C4F20202FC
:100F20009142009000F0A380FFE702980168012041
:100F30002822C4F202029142009000F09880FFE75C
:100F40000298016801204022C4F2020291420090FE
:100F500000F08D80FFE70298016801205822C4F25A
:100F600002029142009000F08280FFE7029801683F
:100F700001207022C4F202029142009077D0FFE774
:100F80000298016801208822C4F202029142009076
:100F90006DD0FFE7029801680120A022C4F202028E
:100FA0009142009063D0FFE7029801680120B822C7
:100FB000C4F202029142009059D0FFE70298016802
:100FC000012040F21042C4F20202914200904ED041
:100FD000FFE702980168012040F22842C4F20202B1
:100FE0009142009043D0FFE702980168012040F24F
:100FF0004042C4F202029142009038D0FFE70298CA
:101000000168012040F25842C4F20202914200906D
:101010002DD0FFE702980168012040F27042C4F22F
:1010200002029142009022D0FFE70298016801205D
:1010300040F28842C4F202029142009017D0FFE7CA
:1010400002980168012040F2A042C4F202029142DB
:1010500000900CD0FFE7029800684FF64831CBF6BD
:10106000FD710844B0FA80F040090090FFE7009855
:10107000C00740B3FFE70298007810384AF6AB216A
:10108000CAF6AA21A0FB011000090190019800F006
:10109000070141F21E70C0F60100405C0299C8656C
:1010A0000198042807D3FFE702990868042262F335
:1010B0000900886506E00299086840F2FF32904313
:1010C0008865FFE705E00299086820F0FF00886561
:1010D000FFE70298806D03B0704700000000000039
:1010E00084B0039003980068019003980168012080
:1010F00045F20842C5F60202914200904ED0FFE749
:1011000003980168012045F21C42C5F60202914293
:10111000009043D0FFE703980168012045F2304278
:10112000C5F602029142009038D0FFE703980168AB
:10113000012045F24442C5F60202914200902DD0B2
:10114000FFE703980168012045F25842C5F6020204
:101150009142009022D0FFE703980168012045F2F8
:101160006C42C5F602029142009017D0FFE7039847
:101170000168012045F28042C5F6020291420090CA
:101180000CD0FFE7039800684AF66C31CAF2FD7193
:101190000844B0FA80F040090090FFE70098C007CB
:1011A00010B3FFE70398007808384CF6CD41CCF631
:1011B000CC41A0FB011000090290029945F6000005
:1011C000C5F6020000EB810003990866039945F615
:1011D0008000C5F602004866029800F01F01012059
:1011E00088400399886635E00398007810384AF6FD
:1011F000AB21CAF6AA21A0FB0110000902900198B8
:1012000040F2B841C4F2020188420CD8FFE70198CD
:1012100040F21041C4F20201884204D3FFE7029871
:1012200008300290FFE7029940F60000C4F2020085
:1012300000EB810003990866039940F68000C4F230
:1012400002004866029800F01F01012088400399BF
:101250008866FFE704B0704783B002900298007977
:1012600001900198002800F08A80FFE70198082883
:1012700000F28580FFE702980168012045F20842EC
:10128000C5F60202914200904ED0FFE70298016835
:10129000012045F21C42C5F602029142009043D063
:1012A000FFE702980168012045F23042C5F60202CC
:1012B0009142009038D0FFE702980168012045F282
:1012C0004442C5F60202914200902DD0FFE70298F9
:1012D0000168012045F25842C5F602029142009091
:1012E00022D0FFE702980168012045F26C42C5F662
:1012F00002029142009017D0FFE702980168012096
:1013000045F28042C5F60202914200900CD0FFE700
:10131000029800684AF66C31CAF2FD710844B0FACE
:1013200080F040090090FFE70098C00780B1FFE718
:10133000019945F6FC00C5F6020000EB8100029918
:10134000C866029945F64010C5F6020008670FE02E
:10135000019940F6FC00C4F2020000EB8100029902
:10136000C866029940F64010C4F202000867FFE721
:101370000198411E0120884002994867FFE703B0A9
:10138000704700000000000085B0049000208DF838
:101390000F000498806918BBFFE70498806A0290E8
:1013A00003281BD80299DFE801F0020D0218049807
:1013B00090F82F00C00720B1FFE701208DF80F0043
:1013C000FFE70CE00498C06AB0F1C07F04D1FFE7EA
:1013D00001208DF80F00FFE701E000E0FFE747E0A4
:1013E00004988069B0F5005F26D1FFE70498806A11
:1013F000019003281ED80199DFE801F002060211CE
:1014000001208DF80F0016E0049890F82F00C00717
:1014100020B1FFE701208DF80F00FFE70BE00498F3
:10142000C06AB0F1C07F04D1FFE701208DF80F0042
:10143000FFE700E0FFE71AE00498806A00900328C5
:1014400004D3FFE70098032804D00EE001208DF8B4
:101450000F000BE0049890F82F00C00720B1FFE7C1
:1014600001208DF80F00FFE700E0FFE7FFE7FFE74F
:101470009DF80F0005B0704789B00890079106925B
:1014800005930898806D04900898806D03900898E3
:10149000016801201022C4F202029142029000F081
:1014A0000381FFE70898016801202822C4F20202A4
:1014B0009142029000F0F880FFE70898016801204F
:1014C0004022C4F202029142029000F0ED80FFE758
:1014D0000898016801205822C4F202029142029049
:1014E00000F0E280FFE70898016801207022C4F252
:1014F00002029142029000F0D780FFE7089801684D
:1015000001208822C4F202029142029000F0CC80B5
:10151000FFE7089801680120A022C4F2020291426C
:10152000029000F0C180FFE7089801680120B8220E
:10153000C4F202029142029000F0B680FFE70898E0
:101540000168012040F21042C4F20202914202906E
:1015500000F0AA80FFE708980168012040F22842C5
:10156000C4F202029142029000F09E80FFE70898C8
:101570000168012040F24042C4F20202914202900E
:1015800000F09280FFE708980168012040F258427D
:10159000C4F202029142029000F08680FFE70898B0
:1015A0000168012040F27042C4F2020291420290AE
:1015B0007AD0FFE708980168012040F28842C4F21F
:1015C0000202914202906FD0FFE708980168012063
:1015D00040F2A042C4F202029142029064D0FFE7BE
:1015E00008980168012040F2B842C4F20202914218
:1015F000029059D0FFE708980168012045F208429F
:10160000C5F60202914202904ED0FFE708980168A9
:10161000012045F21C42C5F602029142029043D0DD
:10162000FFE708980168012045F23042C5F6020242
:101630009142029038D0FFE708980168012045F2F6
:101640004442C5F60202914202902DD0FFE708986D
:101650000168012045F25842C5F60202914202900B
:1016600022D0FFE708980168012045F26C42C5F6D8
:1016700002029142029017D0FFE70898016801200A
:1016800045F28042C5F60202914202900CD0FFE77B
:10169000089800684AF66C31CAF2FD710844B0FA45
:1016A00080F040090290FFE70298C00770B1FFE7A1
:1016B0000898416E806E48600898C06E28B1FFE7B8
:1016C0000898016F406F4860FFE7FFE708980168DE
:1016D00001201022C4F202029142019000F0A38086
:1016E000FFE70898016801202822C4F20202914213
:1016F000019000F09880FFE70898016801204022DF
:10170000C4F202029142019000F08D80FFE7089838
:10171000016801205822C4F202029142019000F0B7
:101720008280FFE70898016801207022C4F202025B
:101730009142019077D0FFE7089801680120882244
:10174000C4F20202914201906DD0FFE7089801684F
:101750000120A022C4F202029142019063D0FFE76F
:10176000089801680120B822C4F202029142019057
:1017700059D0FFE708980168012040F21042C4F2F6
:101780000202914201904ED0FFE7089801680120C3
:1017900040F22842C4F202029142019043D0FFE796
:1017A00008980168012040F24042C4F202029142CE
:1017B000019038D0FFE708980168012040F25842B4
:1017C000C4F20202914201902DD0FFE7089801680F
:1017D000012040F27042C4F202029142019022D0F4
:1017E000FFE708980168012040F28842C4F2020233
:1017F0009142019017D0FFE708980168012040F25C
:10180000A042C4F20202914201900CD0FFE7089876
:1018100000684FF64831CBF6FD710844B0FA80F00D
:1018200040090190FFE70198C00750B3FFE708980F
:10183000C06D00F01F013F2088400499886008981F
:101840000168086820F480200860059808990968F4
:10185000486008988068402809D1FFE706980899F1
:1018600009688860079808990968C86008E00798BF
:10187000089909688860069808990968C860FFE7B0
:1018800082E008980168012045F20842C5F602028C
:10189000914200904ED0FFE708980168012045F280
:1018A0001C42C5F602029142009043D0FFE708981F
:1018B0000168012045F23042C5F6020291420090D3
:1018C00038D0FFE708980168012045F24442C5F688
:1018D0000202914200902DD0FFE708980168012094
:1018E00045F25842C5F602029142009022D0FFE72D
:1018F00008980168012045F26C42C5F60202914247
:10190000009017D0FFE708980168012045F2804257
:10191000C5F60202914200900CD0FFE708980068DB
:101920004AF66C31CAF2FD710844B0FA80F0400901
:101930000090FFE70098C00720B3FFE70898C06D4C
:1019400000F01F010120884003994860059808991C
:101950000968486008988068402809D1FFE7069820
:10196000089909688860079808990968C86008E0BC
:101970000798089909688860069808990968C860F6
:10198000FFE700E0FFE7FFE709B070470000000055
:10199000704700000000000081B0EFF3108072B6C5
:1019A0000090FFE7FEE7000044F60C01C5F60201D7
:1019B000086840F002000860FFE744F60400C5F63E
:1019C000020000688004002801D4FFE7F5E77047B3
:1019D00081B0009001B0704781B0009001B07047B5
:1019E00081B0009001B0704781B0009001B07047A5
:1019F00081B0009001B0704780B5A6B024902391CB
:101A000000208DF88B002398006808B1FFE7FFE7FE
:101A1000FFE7249890F85000012804D1FFE7022046
:101A20008DF897002DE12499012081F85000FFE7FF
:101A3000FFE700201D901E902498006842F20001EC
:101A4000C4F20201884206D1FFE742F20010C4F25C
:101A50000200089002E000200890FFE7089878B99B
:101A6000FFE72499486D40F020004865FFE724997E
:101A7000002081F85000FFE701208DF8970000E179
:101A800008980AF0D1FB0790249800680AF0CCFB74
:101A9000002840F0E280FFE70798002840F0DD8052
:101AA000FFE724980168012042F20002C4F202021A
:101AB000914206900CD0FFE7249800684DF6007123
:101AC000CBF6FD710844B0FA80F040090690FFE7BC
:101AD0000698C10746F20030C5F6020000291CBF77
:101AE00042F20030C4F202002190239800680028DE
:101AF0005ED0FFE72198806820F440402399496830
:101B000008432199886024980168012042F200026C
:101B1000C4F20202914205900CD0FFE724980068BD
:101B20004DF60071CBF6FD710844B0FA80F0400923
:101B30000590FFE70598C10746F20030C5F60200A0
:101B400000291CBF42F20030C4F2020042F2003110
:101B5000C4F20201884212D1FFE742F20000C4F24F
:101B600002000AF049FB039042F20010C4F20200A6
:101B70000AF042FB014603980843049007E046F24E
:101B80000000C5F602000AF037FB0490FFE7049856
:101B900068B9FFE72198806840F61F718843239A4F
:101BA000116892681143084321998860FFE753E068
:101BB0002199886820F440408860249801680120B9
:101BC00042F20002C4F20202914202900CD0FFE7FE
:101BD000249800684DF60071CBF6FD710844B0FA08
:101BE00080F040090290FFE70298C10746F20030FA
:101BF000C5F6020000291CBF42F20030C4F2020008
:101C000042F20031C4F20201884212D1FFE742F2EF
:101C10000000C4F202000AF0EFFA009042F2001055
:101C2000C4F202000AF0E8FA014600980843019065
:101C300007E046F20000C5F602000AF0DDFA019066
:101C4000FFE7019838B9FFE72199886840F61F72CD
:101C500090438860FFE7FFE708E02499486D40F073
:101C60002000486501208DF88B00FFE7FFE72499ED
:101C7000002081F85000FFE79DF88B008DF8970059
:101C8000FFE79DF8970026B080BD0000000000002F
:101C900080B5AAB02690259100208DF89300219060
:101CA000269890F83800012801D1FFE700E0FFE70F
:101CB0002598C0680021C4F2FF71884201D0FFE777
:101CC0001EE02698006842F20001C4F20201884238
:101CD00001D1FFE7FFE72698006842F20011C4F245
:101CE0000201884201D1FFE7FFE72698006846F22B
:101CF0000001C5F60201884201D1FFE7FFE7FFE7D7
:101D0000FFE7269890F85000012804D1FFE7022051
:101D10008DF89F00F1E32699012081F85000FFE73C
:101D2000FFE7269800680AF077FA002840F0D18390
:101D3000FFE72598C078000600282DD4FFE72598F6
:101D40000068000330B9FFE725980068C0F384609D
:101D50001E9015E02598006890FAA0F02890289829
:101D600020B9FFE720208DF8A70005E02898B0FAF9
:101D700080F08DF8A700FFE79DF8A7001E90FFE711
:101D80001E9800F01F01012000FA01F22698016858
:101D9000C8691043C861FFE72698006825990A685A
:101DA00049680AF065FA269800680AF035FA20902A
:101DB000269800680AF0E4F91F902098002840F067
:101DC000B580FFE71F98002840F0B080FFE7269815
:101DD0000068259A116892680AF0BAFA41F2000088
:101DE000C5F60040006800F07040B0F1805F0BD194
:101DF000FFE72598406926990968C96801F01C0128
:101E0000490888401D901FE026980068C068C006F9
:101E100000280BD4FFE72598406926990968C9680E
:101E200001F01C01490888401C900AE0259840698F
:101E300026990968C96801F01001490888401C907A
:101E4000FFE71C981D90FFE71D98239025980069D7
:101E5000042821D0FFE72698006825990A680969B7
:101E6000239B0AF0E1FA26980068259A1169527EB0
:101E7000013AB2FA82F25209D2070AF0F1FA269830
:101E80000068259A1169127E013AB2FA82F252096B
:101E9000D2020AF0B5FA48E026980068006E00F019
:101EA000F84025990968B0EB816F07D1FFE72698C4
:101EB0000168086E20F000400866FFE72698006879
:101EC000406E00F0F84025990968B0EB816F07D1AA
:101ED000FFE726980168486E20F000404866FFE75B
:101EE00026980068806E00F0F84025990968B0EBEC
:101EF000816F07D1FFE726980168886E20F00040C7
:101F00008866FFE726980068C06E00F0F8402599C3
:101F10000968B0EB816F07D1FFE726980168C86EAA
:101F200020F00040C866FFE7FFE7FFE7269800685B
:101F30000AF05AF9002840F0CB82FFE726980068A3
:101F4000259A1168D2680AF01FFA2598C068002106
:101F5000C4F2FF71884240F05781FFE7269800687D
:101F60001B9042F20001C4F20201884240F0A480BA
:101F7000FFE7259800680221C0F23041884203D172
:101F8000FFE701201A9094E0259800680421C0F62C
:101F90006001884205D1FFE74020C1F6201019906A
:101FA00084E0259800680821C0F69041884205D158
:101FB000FFE78020C1F65050189074E02598006823
:101FC0001021C1F2C001884206D1FFE740F20010A3
:101FD000C2F28010179063E0259800682021C1F2BA
:101FE000F041884206D1FFE740F20020C2F2B05033
:101FF000169052E02598006840F20041C2F6002198
:10200000884206D1FFE740F60000C2F63060159026
:1020100040E02598006840F60001C2F63061884231
:1020200006D1FFE741F20000C3F2602014902EE0D9
:102030002598006841F20001C3F26021884206D170
:10204000FFE742F20000C3F2906013901CE0259875
:1020500000680021C4F22131884205D1FFE7002049
:10206000C4F2527012900CE0259801680022C4F668
:1020700084320020914204BF0020C4F6B870129050
:10208000FFE712981390FFE713981490FFE7149856
:102090001590FFE715981690FFE716981790FFE741
:1020A00017981890FFE718981990FFE719981A9059
:1020B000FFE71A981190A2E02698006842F20011FA
:1020C000C4F20201884240F09480FFE7259800683E
:1020D0000221C0F23041884203D1FFE70120109075
:1020E00084E0259800680421C0F66001884205D18B
:1020F000FFE74020C1F620100F9074E0259800689B
:102100000821C0F69041884205D1FFE78020C1F642
:1021100050500E9064E0259800681021C1F2C00173
:10212000884206D1FFE740F20010C2F280100D9005
:1021300053E0259800682021C1F2F041884206D181
:10214000FFE740F20020C2F2B0500C9042E0259828
:10215000006840F20041C2F60021884206D1FFE744
:1021600040F60000C2F630600B9030E02598006821
:1021700040F60001C2F63061884206D1FFE741F225
:102180000000C3F260200A901EE02598006841F22A
:102190000001C3F26021884206D1FFE742F200004D
:1021A000C3F2906009900CE0259801680022C4F603
:1021B00084320020914204BF0020C4F6B870099018
:1021C000FFE709980A90FFE70A980B90FFE70B9842
:1021D0000C90FFE70C980D90FFE70D980E90FFE72D
:1021E0000E980F90FFE70F981090FFE71098089057
:1021F00002E000200890FFE708981190FFE71B9885
:1022000011990AF075F8FFE72598C07800060028B4
:1022100040F15D81FFE726980168012042F200024B
:10222000C4F20202914207900CD0FFE726980068A2
:102230004DF60071CBF6FD710844B0FA80F040090C
:102240000790FFE70798C10746F20030C5F6020085
:1022500000291CBF42F20030C4F2020009F078FFEE
:102260002290269801684FF0010042F20002C4F269
:102270000202914206900CD0FFE7269800684DF6C6
:102280000071CBF6FD710844B0FA80F04009069069
:10229000FFE70698C10746F20030C5F602000029A4
:1022A0001CBF42F20030C4F2020042F20031C4F21C
:1022B0000201884212D1FFE742F20000C4F202009C
:1022C00009F092FF049042F20010C4F2020009F0FB
:1022D0008BFF014604980843059007E046F2000092
:1022E000C5F6020009F080FF0590FFE70598002879
:1022F00040F0E380FFE7259800680021CCF68431A8
:10230000884255D1FFE79DF88A00000600284FD487
:10231000FFE72698006846F20001C5F602018842F0
:1023200045D1FFE726980168012042F20002C4F27D
:102330000202914203900CD0FFE7269800684DF608
:102340000071CBF6FD710844B0FA80F040090390AB
:10235000FFE70398C10746F20030C5F602000029E6
:102360001CBF42F20030C4F20200229941F4000185
:102370000AF036F840F22C00C2F2004000684FEA42
:10238000901042F66351C0F23E51A0FB01104FEA9B
:1023900090114FF0020000EB41002190FFE72198DF
:1023A00020B1FFE7219801382190F8E7FFE783E0AB
:1023B000259800680021CCF25271884238D1FFE79D
:1023C0009DF88B00C00798BBFFE72698006846F28F
:1023D0000001C5F60201884229D1FFE7269801686D
:1023E000012042F20002C4F20202914202900CD09B
:1023F000FFE7269800684DF60071CBF6FD710844A2
:10240000B0FA80F040090290FFE70298C10746F257
:102410000030C5F6020000291CBF42F20030C4F2B1
:102420000200229941F0807109F0DAFFFFE742E0F3
:10243000259800680021CCF6B871884239D1FFE7B1
:102440009DF88A004006002833D4FFE726980068EC
:1024500046F20001C5F60201884229D1FFE726981D
:102460000168012042F20002C4F20202914201908E
:102470000CD0FFE7269800684DF60071CBF6FD7191
:102480000844B0FA80F040090190FFE70198C107C5
:1024900046F20030C5F6020000291CBF42F20030AF
:1024A000C4F20200229941F4800109F099FFFFE78C
:1024B00000E0FFE7FFE7FFE708E02699486D40F0FE
:1024C0002000486501208DF89300FFE7FFE7FFE754
:1024D00008E02699486D40F02000486501208DF8FD
:1024E0009300FFE7FFE72699002081F85000FFE7FF
:1024F0009DF893008DF89F00FFE79DF89F002AB09C
:1025000080BD00000000000081B00090009848F2FB
:102510008811C2F20041884208D1FFE748F26511F4
:10252000C2F20041087801300870FFE7009848F2D5
:10253000EC11C2F20041884207D1FFE748F2641172
:10254000C2F2004101200870FFE701B070470000AF
:1025500081B0009001B0704781B0009001B0704729
:1025600080B590B00F9000200E900F980068006822
:102570000D900F98006840680C900F98016801203A
:1025800042F20002C4F20202914206900CD0FFE730
:102590000F9800684DF60071CBF6FD710844B0FA53
:1025A00080F040090690FFE70698C10746F2003028
:1025B000C5F6020000291CBF42F20030C4F202003E
:1025C00009F0D6FD07909DF834004FEA807000288E
:1025D0001AD5FFE79DF830008007002814D5FFE7E3
:1025E0000F98406DC006002806D4FFE70F99486D8C
:1025F00040F400604865FFE70F98FFF7E9F90F988E
:10260000016802200860FFE79DF8340040070028B9
:1026100006D5FFE70C9800F0040004280ED0FFE771
:102620009DF834000007002840F19F80FFE79DF8E7
:1026300030000007002840F19880FFE70F98406DB8
:10264000C006002806D4FFE70F99486D40F40070DB
:102650004865FFE70F98006809F0EEFD00287CD080
:10266000FFE70F98006842F20011C4F202018842AD
:1026700006D1FFE742F20000C4F20200059003E039
:102680000F9800680590FFE705980F990968884240
:102690000BD0FFE7079840B1FFE70798052804D063
:1026A000FFE70798092805D1FFE70F980068C06881
:1026B000099018E00F98006842F20011C4F202017C
:1026C000884206D1FFE742F20000C4F20200049003
:1026D00003E00F9800680490FFE7049808900898BA
:1026E000C0680990FFE7099800F40050B0F5005F5A
:1026F00032D0FFE70F9800680068000700282AD54D
:10270000FFE70F98006809F087FDC0B9FFE70F9851
:102710000168486820F00C0048600F99486D20F46B
:10272000807048650F98406DC004002806D4FFE70C
:102730000F99486D40F001004865FFE70AE00F99E6
:10274000486D40F0100048650F99886D40F0010019
:102750008865FFE7FFE7FFE7FFE70F98FFF7D4FE85
:102760000F9801680C200860FFE79DF83400800690
:10277000002806D5FFE70C9800F0200020280ED096
:10278000FFE79DF834004006002840F1B680FFE7DF
:102790009DF830004006002840F1AF80FFE70F9819
:1027A000406DC006002806D4FFE70F99486D40F43D
:1027B00000504865FFE70F98006809F0E9FC0B90AE
:1027C0000F98006809F038FD0A900F98006842F2EF
:1027D0000011C4F20201884206D1FFE742F2000074
:1027E000C4F20200039003E00F9800680390FFE733
:1027F00003980F99096888420BD0FFE7079840B10A
:10280000FFE70798062804D0FFE70798072805D1B7
:10281000FFE70F980068C068099018E00F980068FB
:1028200042F20011C4F20201884206D1FFE742F2EF
:102830000000C4F20200029003E00F9800680290CA
:10284000FFE7029808900898C0680990FFE70B9886
:1028500000284AD0FFE79DF82700800700280AD506
:10286000FFE70A9800283FD0FFE79DF82500800683
:10287000002839D4FFE70F98006800684006002858
:1028800031D5FFE79DF82600800600282AD4FFE70F
:102890000F98006809F074FCC0B9FFE70F98016851
:1028A000486820F0600048600F99486D20F480501F
:1028B00048650F98406DC005002806D4FFE70F99C2
:1028C000486D40F001004865FFE70AE00F99486D48
:1028D00040F0100048650F99886D40F00100886550
:1028E000FFE7FFE7FFE7FFE7FFE70F98FFF774F861
:1028F0000F98016860200860FFE79DF8340000062B
:10290000002813D5FFE79DF83000000600280DD5FC
:10291000FFE70F99486D40F4803048650F9800F04C
:102920009FFA0F98016880200860FFE79DF8350046
:10293000C00798B1FFE79DF83100C00770B1FFE70D
:102940000F99486D40F4003048650F98FFF74CF838
:102950000F9801684FF480700860FFE79DF835001C
:102960008007002814D5FFE79DF831008007002874
:102970000ED5FFE70F99486D40F4802048650F9809
:10298000FFF736F80F9801684FF400700860FFE712
:102990009DF83400C00600285DD5FFE79DF83000A3
:1029A000C006002857D5FFE70F98006B18B9FFE75E
:1029B00001200E9038E0079858B3FFE70F980168A0
:1029C000012042F20002C4F20202914201900CD0B6
:1029D000FFE70F9800684DF60071CBF6FD710844D3
:1029E000B0FA80F040090190FFE70198C10746F274
:1029F0000030C5F6020000291CBF42F20030C4F2CC
:102A0000020009F0ADFB18B1FFE701200E90FFE7CF
:102A100009E00F980068C068800718B1FFE701203F
:102A20000E90FFE7FFE7FFE70E9801280ED1FFE7C2
:102A30000F99486D40F4806048650F99886D40F0AB
:102A4000020088650F98FFF787FDFFE70F98016880
:102A500010200860FFE79DF835004007002819D5D1
:102A6000FFE79DF831004007002813D5FFE70F99D5
:102A7000486D40F4804048650F99886D40F008002B
:102A800088650F9801684FF4806008600F98FEF722
:102A9000A7FFFFE710B080BD10B58CB00A900020F2
:102AA0008DF8270006900A9820B9FFE701208DF8DD
:102AB0002F00D1E10A98C06838B1FFE70A98007F7B
:102AC000012801D1FFE7FFE7FFE70A98406D50B901
:102AD000FFE70A9800F0C8F90A99002088650A996A
:102AE00081F85000FFE70A98006809F06DFB28B1F3
:102AF000FFE70A98006809F0FFFAFFE70A98006804
:102B000009F082FBE8B9FFE70A98006809F010FBBA
:102B100040F22C00C2F200400068800942F6635186
:102B2000C0F23E51A0FB0101012000EB9110069084
:102B3000FFE7069820B1FFE7069801380690F8E70E
:102B4000FFE70A98006809F05FFB70B9FFE70A9990
:102B5000486D40F0100048650A99886D40F001000A
:102B6000886501208DF82700FFE70A98006809F0C2
:102B700053FB07900A98406DC006002800F15E8163
:102B8000FFE70798002840F05981FFE70A98406D59
:102B900040F0020020F480700A9948650A980068A5
:102BA00009F022FB002870D1FFE70A980168012094
:102BB00042F20002C4F20202914203900CD0FFE7FD
:102BC0000A9800684DF60071CBF6FD710844B0FA22
:102BD00080F040090390FFE70398C10746F20030F8
:102BE000C5F6020000291CBF42F20030C4F2020008
:102BF00042F20031C4F20201884212D1FFE742F2F0
:102C00000000C4F2020009F0EFFA019042F2001055
:102C1000C4F2020009F0E8FA014601980843029064
:102C200007E046F20000C5F6020009F0DDFA029066
:102C3000FFE7029840BBFFE70A980168012042F2D3
:102C40000002C4F20202914200900CD0FFE70A9801
:102C500000684DF60071CBF6FD710844B0FA80F0C3
:102C600040090090FFE70098C10746F20030C5F622
:102C7000020000291CBF42F20030C4F202000A998F
:102C8000496809F09DFBFFE7FFE703F091FE41F281
:102C90000401884213D3FFE70A98806810280ED1F8
:102CA000FFE70A994A7D086B40EA42308A68104380
:102CB000097F40EA014040F00C0008900BE00A99BF
:102CC0004A7D086B40EA42308A681043097F40EA37
:102CD00001400890FFE70A98007F01280BD1FFE729
:102CE0000A98016A0020CFF6FE7000EB4141089877
:102CF00008430890FFE70A98406A50B1FFE70A9935
:102D0000486A896A00F4787001430898084308907B
:102D1000FFE70A980068C0684CF20301CFF6F07133
:102D20000840089908430A990968C8600A98006829
:102D300009F072FA05900A98006809F021FA0490E7
:102D40000598002859D1FFE70498002855D1FFE7DE
:102D50000A98017DC06A40EA813008900A980068AC
:102D6000C06844F203018843089908430A99096836
:102D7000C8600A9890F83800012829D1FFE70A981E
:102D8000406A20B1FFE70A98806A08B9FFE7FFE7C9
:102D90000A98006800694FF61E01CFF6004100EA6C
:102DA00001020A9B1968DC6BD3F840E0D3F844C0F9
:102DB0000020CFF6FF7000EB044040EA0E0040EA2E
:102DC0000C009B6C1843104340F00100086106E0C2
:102DD0000A980168086920F001000861FFE70A9875
:102DE0000068006920F070400A9A1168526B104325
:102DF00008610A98FDF7F0FCFFE70A98C06801280F
:102E00000CD1FFE70A980068006B20F00F000A9AC7
:102E100011689269013A1043086306E00A98016854
:102E2000086B20F00F000863FFE70A98406D40F040
:102E3000010020F002000A99486508E00A99486DEF
:102E400040F01000486501208DF82700FFE79DF84D
:102E500027008DF82F00FFE79DF82F000CB010BD64
:102E600081B0009001B0704780B594B013900020FD
:102E70001290119010900F900E901398006842F2EB
:102E80000001C4F2020188426FD1FFE748F2081046
:102E9000C2F200400168013101600068012810D1D0
:102EA000FFE7FFE744F2D840C5F60200016841F0B1
:102EB00020010160006800F020000D900D98FFE7F0
:102EC000FFE7FFE744F2E040C5F60200016841F089
:102ED00004010160006800F004000C900C98FFE70A
:102EE00001200E9003200F9000200790109040F6D4
:102EF0000000C5F602000EA903F05EFB079948F238
:102F00005020C2F2004008901022C4F20202026077
:102F1000092242608160C1604FF4806202614FF417
:102F2000006242614FF400528261C1614FF400328D
:102F30000262416202F008FB18B1FFE7FEF72CFDC8
:102F4000FFE7FFE7139848F25021C2F20041C16445
:102F500013988863FFE7122006900022114603F0C1
:102F600057FE069803F048FE97E01398006842F277
:102F70000011C4F20201884240F08E80FFE748F25F
:102F80000810C2F2004001680131016000680128A8
:102F900010D1FFE7FFE744F2D840C5F60200016810
:102FA00041F020010160006800F020000B900B98B8
:102FB000FFE7FFE7FFE744F2E040C5F602000168E3
:102FC00041F001010160006800F001000A900A98D8
:102FD000FFE7FFE744F2E040C5F60200016841F078
:102FE00020010160006800F0200009900998FFE7C7
:102FF00080200E90032002900F90002004901090EB
:103000000020C5F602000EA9039103F0D5FA029A3A
:10301000039904984FF480430E930F92109041F25D
:103020000040C5F6020003F0C7FA049948F2C82030
:10303000C2F2004005902822C4F2020202600A2275
:1030400042608160C1604FF4806202614FF40062AF
:1030500042614FF400528261C1614FF480320262DA
:10306000416202F071FA18B1FFE7FEF795FCFFE745
:10307000FFE7139848F2C821C2F20041C1641398D7
:103080008863FFE7122001900022114603F0C0FD83
:10309000019803F0B1FDFFE7FFE714B080BD000029
:1030A00080B588B0069005910492069801680120C9
:1030B00042F20002C4F20202914201900CD0FFE7FA
:1030C000069800684DF60071CBF6FD710844B0FA21
:1030D00080F040090190FFE70198C10746F20030F7
:1030E000C5F6020000291CBF42F20030C4F2020003
:1030F00009F03EF802900698006809F08DF8002863
:1031000040F0AF80FFE7FFE7069890F850000128F5
:1031100004D1FFE702208DF81F00ABE006990120E3
:1031200081F85000FFE7FFE7029848B1FFE70298F7
:10313000052805D0FFE70298092840F08780FFE7BF
:103140000698FDF715FE8DF80F009DF80F0000287A
:1031500074D1FFE70698406D40F4807040F601613D
:103160008843069948650698006842F20011C4F247
:103170000201884206D1FFE742F20000C4F20200D9
:10318000009003E0069800680090FFE70098069919
:103190000968884203D0FFE7029830B9FFE7069933
:1031A000486D20F480104865FFE70698406DC00424
:1031B000002806D5FFE70699886D20F0060088658F
:1031C00003E0069900208865FFE70698C16C40F689
:1031D0008930C0F60000C8630698C16C40F6914083
:1031E000C0F6000008640698C16C40F66140C0F665
:1031F0000000C864069801681C200860FFE7069973
:10320000002081F85000FFE706980168486840F008
:103210001000486006990868C96A09F019F806980C
:103220000168C06C4031059A049B02F041FE8DF8A4
:103230000F000698006809F03BF806E0FFE70699E2
:10324000002081F85000FFE7FFE709E001208DF83A
:103250000F00FFE70699002081F85000FFE7FFE725
:1032600003E002208DF80F00FFE79DF80F008DF8B6
:103270001F00FFE79DF81F0008B080BD00000000A0
:1032800080B584B00290FFE7029890F850000128C2
:1032900004D1FFE702208DF80F005DE002990120C4
:1032A00081F85000FFE7FFE702980321FDF7A0FB3C
:1032B0008DF807009DF80700002842D1FFE702982B
:1032C0000068C06820F0030002990968C86002988D
:1032D000C06C90F83500022811D1FFE70298C06C4D
:1032E00000F03EF88DF807009DF8070030B1FFE7C9
:1032F0000299486D40F040004865FFE7FFE70298FB
:103300000168486820F0100048609DF8070030B957
:10331000FFE70298FDF7C8FC8DF8070003E002986C
:10332000FDF7C2FCFFE79DF8070048B9FFE70298E8
:10333000406D40F0010020F4885002994865FFE795
:10334000FFE7FFE70299002081F85000FFE79DF8B2
:1033500007008DF80F00FFE79DF80F0004B080BD57
:1033600080B58AB0089003F02BFB0490089828B928
:10337000FFE701208DF8270000F0AABC089890F81C
:10338000350002280ED0FFE7089980204865FFE746
:103390000899002081F83400FFE701208DF827000C
:1033A00000F096BC0898016801201022C4F20202C5
:1033B0009142039000F0A380FFE708980168012084
:1033C0002822C4F202029142039000F09880FFE7A5
:1033D0000898016801204022C4F202029142039041
:1033E00000F08D80FFE70898016801205822C4F2A0
:1033F00002029142039000F08280FFE70898016882
:1034000001207022C4F202029142039077D0FFE7BC
:103410000898016801208822C4F2020291420390B8
:103420006DD0FFE7089801680120A022C4F20202D3
:103430009142039063D0FFE7089801680120B82209
:10344000C4F202029142039059D0FFE70898016844
:10345000012040F21042C4F20202914203904ED089
:10346000FFE708980168012040F22842C4F20202F6
:103470009142039043D0FFE708980168012040F291
:103480004042C4F202029142039038D0FFE708980C
:103490000168012040F25842C4F2020291420390B6
:1034A0002DD0FFE708980168012040F27042C4F275
:1034B00002029142039022D0FFE7089801680120A0
:1034C00040F28842C4F202029142039017D0FFE713
:1034D00008980168012040F2A042C4F20202914221
:1034E00003900CD0FFE7089800684FF64831CBF600
:1034F000FD710844B0FA80F040090390FFE703989B
:10350000C00780B1FFE708980168086820F01E0036
:10351000086008980168486920F0800048610898B0
:103520000068059009E008980168086820F00E001E
:103530000860089800680590FFE708980168012076
:103540001022C4F202029142029000F00381FFE7D0
:103550000898016801202822C4F2020291420290D8
:1035600000F0F880FFE70898016801204022C4F2CB
:1035700002029142029000F0ED80FFE70898016896
:1035800001205822C4F202029142029000F0E2802F
:10359000FFE70898016801207022C4F202029142FC
:1035A000029000F0D780FFE7089801680120882288
:1035B000C4F202029142029000F0CC80FFE708982A
:1035C00001680120A022C4F202029142029000F0A0
:1035D000C180FFE7089801680120B822C4F2020206
:1035E0009142029000F0B680FFE708980168012040
:1035F00040F21042C4F202029142029000F0AA800E
:10360000FFE708980168012040F22842C4F2020254
:103610009142029000F09E80FFE708980168012027
:1036200040F24042C4F202029142029000F09280C5
:10363000FFE708980168012040F25842C4F20202F4
:103640009142029000F08680FFE70898016801200F
:1036500040F27042C4F20202914202907AD0FFE737
:1036600008980168012040F28842C4F202029142A7
:1036700002906FD0FFE708980168012040F2A04255
:10368000C4F202029142029064D0FFE708980168F8
:10369000012040F2B842C4F202029142029059D095
:1036A000FFE708980168012045F20842C5F60202CA
:1036B000914202904ED0FFE708980168012045F240
:1036C0001C42C5F602029142029043D0FFE70898DF
:1036D0000168012045F23042C5F602029142029093
:1036E00038D0FFE708980168012045F24442C5F64A
:1036F0000202914202902DD0FFE708980168012054
:1037000045F25842C5F602029142029022D0FFE7EC
:1037100008980168012045F26C42C5F60202914208
:10372000029017D0FFE708980168012045F2804217
:10373000C5F60202914202900CD0FFE7089800689B
:103740004AF66C31CAF2FD710844B0FA80F04009C3
:103750000290FFE70298C00738B1FFE70898016EB2
:10376000086820F480700860FFE70898006810215E
:10377000C4F20201884200F08180FFE708980068E7
:103780002821C4F20201884278D0FFE70898006837
:103790004021C4F20201884270D0FFE70898006817
:1037A0005821C4F20201884268D0FFE708980068F7
:1037B0007021C4F20201884260D0FFE708980068D7
:1037C0008821C4F20201884258D0FFE708980068B7
:1037D000A021C4F20201884250D0FFE70898006897
:1037E000B821C4F20201884248D0FFE70898006877
:1037F00040F21041C4F2020188423FD0FFE708982E
:10380000006840F22841C4F20201884236D0FFE746
:103810000898006840F24041C4F2020188422DD06D
:10382000FFE70898006840F25841C4F2020188425C
:1038300024D0FFE70898006840F27041C4F202010A
:1038400088421BD0FFE70898006840F28841C4F224
:103850000201884212D0FFE70898006840F2A041B8
:10386000C4F20201884209D0FFE70898006840F2DC
:10387000B841C4F20201884207D1FFE70898016805
:10388000086820F00100086006E0089801680868F0
:1038900020F001000860FFE7FFE705980068C00717
:1038A000C8B1FFE703F08CF80499401A062811D339
:1038B000FFE70899202048650899032081F8350022
:1038C000FFE70899002081F83400FFE701208DF818
:1038D0002700FDE1E1E70898016801201022C4F209
:1038E00002029142019000F0A380FFE7089801686E
:1038F00001202822C4F202029142019000F0988037
:10390000FFE70898016801204022C4F202029142B8
:10391000019000F08D80FFE708980168012058228F
:10392000C4F202029142019000F08280FFE7089801
:10393000016801207022C4F202029142019077D006
:10394000FFE70898016801208822C4F20202914230
:1039500001906DD0FFE7089801680120A022C4F211
:1039600002029142019063D0FFE7089801680120AC
:10397000B822C4F202029142019059D0FFE70898A0
:103980000168012040F21042C4F20202914201900B
:103990004ED0FFE708980168012040F22842C4F2A7
:1039A00002029142019043D0FFE70898016801208C
:1039B00040F24042C4F202029142019038D0FFE747
:1039C00008980168012040F25842C4F20202914274
:1039D00001902DD0FFE708980168012040F2704265
:1039E000C4F202029142019022D0FFE708980168D8
:1039F000012040F28842C4F202029142019017D0A5
:103A0000FFE708980168012040F2A042C4F20202D8
:103A1000914201900CD0FFE7089800684FF64831BA
:103A2000CBF6FD710844B0FA80F040090190FFE741
:103A30000198C00760B1FFE70898806D079008986B
:103A4000C06D00F01F013F208840079988600BE09F
:103A50000898806D06900898C06D00F01F01012045
:103A6000884006994860FFE7089801680120102205
:103A7000C4F202029142009000F00381FFE708982F
:103A8000016801202822C4F202029142009000F055
:103A9000F880FFE70898016801204022C4F2020282
:103AA0009142009000F0ED80FFE708980168012046
:103AB0005822C4F202029142009000F0E280FFE737
:103AC0000898016801207022C4F20202914200901D
:103AD00000F0D780FFE70898016801208822C4F22F
:103AE00002029142009000F0CC80FFE70898016844
:103AF0000120A022C4F202029142009000F0C18095
:103B0000FFE7089801680120B822C4F2020291423E
:103B1000009000F0B680FFE708980168012040F2AD
:103B20001042C4F202029142009000F0AA80FFE726
:103B300008980168012040F22842C4F20202914232
:103B4000009000F09E80FFE708980168012040F295
:103B50004042C4F202029142009000F09280FFE7DE
:103B600008980168012040F25842C4F202029142D2
:103B7000009000F08680FFE708980168012040F27D
:103B80007042C4F20202914200907AD0FFE7089896
:103B90000168012040F28842C4F202029142009082
:103BA0006FD0FFE708980168012040F2A042C4F2FC
:103BB00002029142009064D0FFE70898016801205A
:103BC00040F2B842C4F202029142009059D0FFE79D
:103BD00008980168012045F20842C5F602029142A8
:103BE00000904ED0FFE708980168012045F21C4282
:103BF000C5F602029142009043D0FFE708980168A1
:103C0000012045F23042C5F602029142009038D0C0
:103C1000FFE708980168012045F24442C5F6020218
:103C2000914200902DD0FFE708980168012045F2ED
:103C30005842C5F602029142009022D0FFE7089850
:103C40000168012045F26C42C5F6020291420090E3
:103C500017D0FFE708980168012045F28042C5F6B9
:103C60000202914200900CD0FFE7089800684AF6E3
:103C70006C31CAF2FD710844B0FA80F0400900903E
:103C8000FFE70098C007A0B1FFE70898416E806E7B
:103C900048600898C06E58B1FFE70898C16E086880
:103CA00020F4807008600898016F406F4860FFE75B
:103CB000FFE70899012081F83500FFE70899002007
:103CC00081F83400FFE7FFE700208DF82700FFE7C9
:103CD0009DF827000AB080BD80B586B00490049896
:103CE00020B9FFE701208DF8170046E3049890F80B
:103CF0003500022807D0FFE704998020486501209D
:103D00008DF8170039E30498016801201022C4F2ED
:103D100002029142029000F0A380FFE7049801683C
:103D200001202822C4F202029142029000F0988001
:103D3000FFE70498016801204022C4F20202914288
:103D4000029000F08D80FFE704980168012058225E
:103D5000C4F202029142029000F08280FFE70498D0
:103D6000016801207022C4F202029142029077D0D1
:103D7000FFE70498016801208822C4F20202914200
:103D800002906DD0FFE7049801680120A022C4F2E0
:103D900002029142029063D0FFE70498016801207B
:103DA000B822C4F202029142029059D0FFE704986F
:103DB0000168012040F21042C4F2020291420290D6
:103DC0004ED0FFE704980168012040F22842C4F277
:103DD00002029142029043D0FFE70498016801205B
:103DE00040F24042C4F202029142029038D0FFE712
:103DF00004980168012040F25842C4F20202914244
:103E000002902DD0FFE704980168012040F2704233
:103E1000C4F202029142029022D0FFE704980168A6
:103E2000012040F28842C4F202029142029017D06F
:103E3000FFE704980168012040F2A042C4F20202A8
:103E4000914202900CD0FFE7049800684FF6483189
:103E5000CBF6FD710844B0FA80F040090290FFE70C
:103E60000298C007002800F09D80FFE70499042015
:103E700081F83500049800681021C4F202018842DC
:103E800000F08180FFE7049800682821C4F2020155
:103E9000884278D0FFE7049800684021C4F202010C
:103EA000884270D0FFE7049800685821C4F20201EC
:103EB000884268D0FFE7049800687021C4F20201CC
:103EC000884260D0FFE7049800688821C4F20201AC
:103ED000884258D0FFE704980068A021C4F202018C
:103EE000884250D0FFE704980068B821C4F202016C
:103EF000884248D0FFE70498006840F21041C4F2BD
:103F0000020188423FD0FFE70498006840F2284150
:103F1000C4F20201884236D0FFE70498006840F2FC
:103F20004041C4F2020188422DD0FFE704980068A6
:103F300040F25841C4F20201884224D0FFE70498BD
:103F4000006840F27041C4F2020188421BD0FFE7D2
:103F50000498006840F28841C4F20201884212D0FD
:103F6000FFE70498006840F2A041C4F202018842D1
:103F700009D0FFE70498006840F2B841C4F202019A
:103F8000884207D1FFE704980168086820F0010023
:103F9000086006E004980168086820F001000860E5
:103FA000FFE7E5E104980168086820F00E0008606A
:103FB000049800681021C4F20201884200F0818058
:103FC000FFE7049800682821C4F20201884278D0F3
:103FD000FFE7049800684021C4F20201884270D0D3
:103FE000FFE7049800685821C4F20201884268D0B3
:103FF000FFE7049800687021C4F20201884260D093
:10400000FFE7049800688821C4F20201884258D072
:10401000FFE704980068A021C4F20201884250D052
:10402000FFE704980068B821C4F20201884248D032
:10403000FFE70498006840F21041C4F20201884290
:104040003FD0FFE70498006840F22841C4F2020123
:10405000884236D0FFE70498006840F24041C4F23D
:10406000020188422DD0FFE70498006840F25841D1
:10407000C4F20201884224D0FFE70498006840F2AD
:104080007041C4F2020188421BD0FFE70498006827
:1040900040F28841C4F20201884212D0FFE704983E
:1040A000006840F2A041C4F20201884209D0FFE753
:1040B0000498006840F2B841C4F20201884207D176
:1040C000FFE704980168086820F00100086006E036
:1040D00004980168086820F001000860FFE7049870
:1040E000016801201022C4F202029142019000F006
:1040F0000381FFE70498016801202822C4F202022C
:104100009142019000F0F880FFE7049801680120D7
:104110004022C4F202029142019000F0ED80FFE7DC
:104120000498016801205822C4F2020291420190D1
:1041300000F0E280FFE70498016801207022C4F2D9
:1041400002029142019000F0D780FFE704980168D5
:1041500001208822C4F202029142019000F0CC803A
:10416000FFE7049801680120A022C4F202029142F4
:10417000019000F0C180FFE7049801680120B82297
:10418000C4F202029142019000F0B680FFE7049869
:104190000168012040F21042C4F2020291420190F3
:1041A00000F0AA80FFE704980168012040F228424D
:1041B000C4F202029142019000F09E80FFE7049851
:1041C0000168012040F24042C4F202029142019093
:1041D00000F09280FFE704980168012040F2584205
:1041E000C4F202029142019000F08680FFE7049839
:1041F0000168012040F27042C4F202029142019033
:104200007AD0FFE704980168012040F28842C4F2A6
:104210000202914201906FD0FFE7049801680120EB
:1042200040F2A042C4F202029142019064D0FFE742
:1042300004980168012040F2B842C4F2020291429F
:10424000019059D0FFE704980168012045F2084227
:10425000C5F60202914201904ED0FFE70498016832
:10426000012045F21C42C5F602029142019043D062
:10427000FFE704980168012045F23042C5F60202CA
:104280009142019038D0FFE704980168012045F27F
:104290004442C5F60202914201902DD0FFE70498F6
:1042A0000168012045F25842C5F602029142019090
:1042B00022D0FFE704980168012045F26C42C5F660
:1042C00002029142019017D0FFE704980168012093
:1042D00045F28042C5F60202914201900CD0FFE700
:1042E000049800684AF66C31CAF2FD710844B0FACD
:1042F00080F040090190FFE70198C00728B3FFE76D
:104300000498016E086820F4807008600498806D3D
:1043100003900498C06D00F01F01012088400399AC
:1043200048600498416E806E48600498C06E58B131
:10433000FFE70498C16E086820F480700860049854
:10434000016F406F4860FFE7FFE70499012081F8A3
:104350003500FFE70499002081F83400FFE7049856
:10436000006D20B1FFE70498016D8847FFE7FFE784
:10437000FFE700208DF81700FFE79DF8170006B053
:1043800080BD00000000000080B590B00F900020BC
:104390000B9040F22C00C2F20040006848F2B511C8
:1043A000C1F64E31A0FB0110800A0A900F98806D73
:1043B00009900F98806D0890099800680E900898F1
:1043C00000680D900F98016801201022C4F20202CB
:1043D0009142079000F0A380FFE70F980168012049
:1043E0002822C4F202029142079000F09880FFE771
:1043F0000F98016801204022C4F202029142079006
:1044000000F08D80FFE70F98016801205822C4F268
:1044100002029142079000F08280FFE70F98016846
:1044200001207022C4F202029142079077D0FFE788
:104430000F98016801208822C4F20202914207907D
:104440006DD0FFE70F9801680120A022C4F202029C
:104450009142079063D0FFE70F9801680120B822CE
:10446000C4F202029142079059D0FFE70F98016809
:10447000012040F21042C4F20202914207904ED055
:10448000FFE70F980168012040F22842C4F20202BF
:104490009142079043D0FFE70F980168012040F256
:1044A0004042C4F202029142079038D0FFE70F98D1
:1044B0000168012040F25842C4F202029142079082
:1044C0002DD0FFE70F980168012040F27042C4F23E
:1044D00002029142079022D0FFE70F980168012065
:1044E00040F28842C4F202029142079017D0FFE7DF
:1044F0000F980168012040F2A042C4F202029142EA
:1045000007900CD0FFE70F9800684FF64831CBF6C4
:10451000FD710844B0FA80F040090790FFE7079862
:10452000C007002800F01385FFE70E980F99C96DAA
:1045300001F01F01C8400007002840F1B080FFE7EC
:104540000F9800681021C4F20201884200F08180B7
:10455000FFE70F9800682821C4F20201884278D052
:10456000FFE70F9800684021C4F20201884270D032
:10457000FFE70F9800685821C4F20201884268D012
:10458000FFE70F9800687021C4F20201884260D0F2
:10459000FFE70F9800688821C4F20201884258D0D2
:1045A000FFE70F980068A021C4F20201884250D0B2
:1045B000FFE70F980068B821C4F20201884248D092
:1045C000FFE70F98006840F21041C4F202018842F0
:1045D0003FD0FFE70F98006840F22841C4F2020183
:1045E000884236D0FFE70F98006840F24041C4F29D
:1045F000020188422DD0FFE70F98006840F2584131
:10460000C4F20201884224D0FFE70F98006840F20C
:104610007041C4F2020188421BD0FFE70F98006886
:1046200040F28841C4F20201884212D0FFE70F989D
:10463000006840F2A041C4F20201884209D0FFE7BD
:104640000F98006840F2B841C4F20201884207D1D5
:10465000FFE70F980068006800F00400069006E08D
:104660000F980068006800F008000690FFE70698C1
:10467000A0B1FFE70F980168086820F00400086007
:104680000F98C06D00F01F010820884009998860CC
:104690000F99486D40F001004865FFE7FFE70E986D
:1046A0000F99C96D01F01F01C840C007002800F034
:1046B000A980FFE70F9800681021C4F20201884228
:1046C00000F08180FFE70F9800682821C4F2020102
:1046D000884278D0FFE70F9800684021C4F20201B9
:1046E000884270D0FFE70F9800685821C4F2020199
:1046F000884268D0FFE70F9800687021C4F2020179
:10470000884260D0FFE70F9800688821C4F2020158
:10471000884258D0FFE70F980068A021C4F2020138
:10472000884250D0FFE70F980068B821C4F2020118
:10473000884248D0FFE70F98006840F21041C4F269
:10474000020188423FD0FFE70F98006840F22841FD
:10475000C4F20201884236D0FFE70F98006840F2A9
:104760004041C4F2020188422DD0FFE70F98006853
:1047700040F25841C4F20201884224D0FFE70F986A
:10478000006840F27041C4F2020188421BD0FFE78A
:104790000F98006840F28841C4F20201884212D0AA
:1047A000FFE70F98006840F2A041C4F2020188427E
:1047B00009D0FFE70F98006840F2B841C4F2020147
:1047C000884207D1FFE70F980068406900F0800039
:1047D000059005E00F980068006800200590FFE74D
:1047E000059870B1FFE70F98C06D00F01F01012020
:1047F0008840099988600F99486D40F0020048652B
:10480000FFE7FFE70E980F99C96D01F01F01C8403F
:104810004007002840F1A980FFE70F9800681021A9
:10482000C4F20201884200F08180FFE70F9800681F
:104830002821C4F20201884278D0FFE70F9800686F
:104840004021C4F20201884270D0FFE70F9800684F
:104850005821C4F20201884268D0FFE70F9800682F
:104860007021C4F20201884260D0FFE70F9800680F
:104870008821C4F20201884258D0FFE70F980068EF
:10488000A021C4F20201884250D0FFE70F980068CF
:10489000B821C4F20201884248D0FFE70F980068AF
:1048A00040F21041C4F2020188423FD0FFE70F9866
:1048B000006840F22841C4F20201884236D0FFE786
:1048C0000F98006840F24041C4F2020188422DD0A6
:1048D000FFE70F98006840F25841C4F20201884295
:1048E00024D0FFE70F98006840F27041C4F2020143
:1048F00088421BD0FFE70F98006840F28841C4F25D
:104900000201884212D0FFE70F98006840F2A041F0
:10491000C4F20201884209D0FFE70F98006840F214
:10492000B841C4F20201884207D1FFE70F9800683E
:10493000006800F00200049005E00F98006800682D
:1049400000200490FFE7049870B1FFE70F98C06D56
:1049500000F01F0104208840099988600F99486D74
:1049600040F004004865FFE7FFE70E980F99C96D16
:1049700001F01F01C840C006002840F1DE80FFE7BB
:104980000F9800681021C4F20201884200F0818073
:10499000FFE70F9800682821C4F20201884278D00E
:1049A000FFE70F9800684021C4F20201884270D0EE
:1049B000FFE70F9800685821C4F20201884268D0CE
:1049C000FFE70F9800687021C4F20201884260D0AE
:1049D000FFE70F9800688821C4F20201884258D08E
:1049E000FFE70F980068A021C4F20201884250D06E
:1049F000FFE70F980068B821C4F20201884248D04E
:104A0000FFE70F98006840F21041C4F202018842AB
:104A10003FD0FFE70F98006840F22841C4F202013E
:104A2000884236D0FFE70F98006840F24041C4F258
:104A3000020188422DD0FFE70F98006840F25841EC
:104A4000C4F20201884224D0FFE70F98006840F2C8
:104A50007041C4F2020188421BD0FFE70F98006842
:104A600040F28841C4F20201884212D0FFE70F9859
:104A7000006840F2A041C4F20201884209D0FFE779
:104A80000F98006840F2B841C4F20201884207D191
:104A9000FFE70F980068006800F00800039006E048
:104AA0000F980068006800F004000390FFE7039887
:104AB000002841D0FFE70F98C06D00F01F011020C3
:104AC0008840099988600F980068006840030028B2
:104AD0001AD5FFE70F98006800680003002809D482
:104AE000FFE70F98006C20B1FFE70F98016C884733
:104AF000FFE708E00F98806C20B1FFE70F98816C0A
:104B00008847FFE7FFE716E00F9800680068C005D8
:104B1000002807D4FFE70F980168086820F0080014
:104B20000860FFE70F98006C20B1FFE70F98016C59
:104B30008847FFE7FFE7FFE7FFE70E980F99C96D8A
:104B400001F01F01C8408006002840F12681FFE7E0
:104B50000F9800681021C4F20201884200F08180A1
:104B6000FFE70F9800682821C4F20201884278D03C
:104B7000FFE70F9800684021C4F20201884270D01C
:104B8000FFE70F9800685821C4F20201884268D0FC
:104B9000FFE70F9800687021C4F20201884260D0DC
:104BA000FFE70F9800688821C4F20201884258D0BC
:104BB000FFE70F980068A021C4F20201884250D09C
:104BC000FFE70F980068B821C4F20201884248D07C
:104BD000FFE70F98006840F21041C4F202018842DA
:104BE0003FD0FFE70F98006840F22841C4F202016D
:104BF000884236D0FFE70F98006840F24041C4F287
:104C0000020188422DD0FFE70F98006840F258411A
:104C1000C4F20201884224D0FFE70F98006840F2F6
:104C20007041C4F2020188421BD0FFE70F98006870
:104C300040F28841C4F20201884212D0FFE70F9887
:104C4000006840F2A041C4F20201884209D0FFE7A7
:104C50000F98006840F2B841C4F20201884207D1BF
:104C6000FFE70F980068006800F01000029006E06F
:104C70000F980068006800F002000290FFE70298B9
:104C8000002800F08980FFE70F98C06D00F01F0139
:104C900020208840099988600F9890F835000428F2
:104CA00037D1FFE70F980168086820F01600086008
:104CB0000F980168486920F0800048610F98006CE7
:104CC00020B9FFE70F98806C38B1FFE70F980168B3
:104CD000086820F008000860FFE70F98C06D00F03A
:104CE0001F013F208840099988600F99012081F8B1
:104CF0003500FFE70F99002081F83400FFE70F9897
:104D0000006D20B1FFE70F98016D8847FFE700F0C5
:104D100019BC0F9800680068400300281AD5FFE707
:104D20000F98006800680003002809D4FFE70F9877
:104D3000406C20B1FFE70F98416C8847FFE708E01F
:104D40000F98C06B20B1FFE70F98C16B8847FFE752
:104D5000FFE720E00F9800680068C005002811D424
:104D6000FFE70F980168086820F0100008600F99AD
:104D7000012081F83500FFE70F99002081F8340009
:104D8000FFE7FFE70F98C06B20B1FFE70F98C16BFB
:104D90008847FFE7FFE7FFE7FFE70F98406D002830
:104DA00000F0D480FFE70F98406DC007002800F0A6
:104DB000C480FFE70F99042081F835000F98006840
:104DC0001021C4F20201884200F08180FFE70F98B1
:104DD00000682821C4F20201884278D0FFE70F98CA
:104DE00000684021C4F20201884270D0FFE70F98AA
:104DF00000685821C4F20201884268D0FFE70F988A
:104E000000687021C4F20201884260D0FFE70F9869
:104E100000688821C4F20201884258D0FFE70F9849
:104E20000068A021C4F20201884250D0FFE70F9829
:104E30000068B821C4F20201884248D0FFE70F9809
:104E4000006840F21041C4F2020188423FD0FFE7FF
:104E50000F98006840F22841C4F20201884236D01F
:104E6000FFE70F98006840F24041C4F20201884217
:104E70002DD0FFE70F98006840F25841C4F20201BC
:104E8000884224D0FFE70F98006840F27041C4F2D6
:104E9000020188421BD0FFE70F98006840F288416A
:104EA000C4F20201884212D0FFE70F98006840F276
:104EB000A041C4F20201884209D0FFE70F980068C0
:104EC00040F2B841C4F20201884207D1FFE70F98CF
:104ED0000168086820F00100086006E00F9801688A
:104EE000086820F001000860FFE7FFE70B98013039
:104EF0000B900A99884201D9FFE707E0FFE70F9876
:104F000000680068C0070028F0D1FFE70F9800682C
:104F10000068C00728B1FFE70F99032081F835002A
:104F200004E00F99012081F83500FFE7FFE70F99B2
:104F3000002081F83400FFE7FFE70F98C06C20B134
:104F4000FFE70F98C16C8847FFE7FFE7FAE20F9889
:104F50000168012045F20842C5F602029142019023
:104F60004ED0FFE70F980168012045F21C42C5F6BC
:104F700002029142019043D0FFE70F98016801209F
:104F800045F23042C5F602029142019038D0FFE767
:104F90000F980168012045F24442C5F60202914291
:104FA00001902DD0FFE70F980168012045F258428B
:104FB000C5F602029142019022D0FFE70F980168E6
:104FC000012045F26C42C5F602029142019017D0D1
:104FD000FFE70F980168012045F28042C5F6020202
:104FE000914201900CD0FFE70F9800684AF66C31AF
:104FF000CAF2FD710844B0FA80F040090190FFE761
:105000000198C007002800F09B82FFE70F98006816
:1050100000680C900D980F99C96D01F01F01C840F0
:105020004007002840F1D780FFE79DF83000400797
:10503000002840F1D080FFE70F98C06D00F01F01FD
:1050400004208840089948609DF831000006002837
:1050500018D5FFE79DF83200C00748B9FFE70F9861
:10506000806C20B1FFE70F98816C8847FFE708E06C
:105070000F98006C20B1FFE70F98016C8847FFE79D
:10508000FFE7A7E09DF830008006002800F1998036
:10509000FFE70F9800681021C4F20201884200F077
:1050A0008180FFE70F9800682821C4F2020188423E
:1050B00078D0FFE70F9800684021C4F202018842CF
:1050C00070D0FFE70F9800685821C4F202018842AF
:1050D00068D0FFE70F9800687021C4F2020188428F
:1050E00060D0FFE70F9800688821C4F2020188426F
:1050F00058D0FFE70F980068A021C4F2020188424F
:1051000050D0FFE70F980068B821C4F2020188422E
:1051100048D0FFE70F98006840F21041C4F2020146
:1051200088423FD0FFE70F98006840F22841C4F260
:105130000201884236D0FFE70F98006840F24041F4
:10514000C4F2020188422DD0FFE70F98006840F2B8
:105150005841C4F20201884224D0FFE70F9800684A
:1051600040F27041C4F2020188421BD0FFE70F9861
:10517000006840F28841C4F20201884212D0FFE781
:105180000F98006840F2A041C4F20201884209D0A1
:10519000FFE70F98006840F2B841C4F2020188426C
:1051A00007D1FFE70F980168086820F00800086041
:1051B00006E00F980168086820F004000860FFE727
:1051C000FFE70F98006C20B1FFE70F98016C88474C
:1051D000FFE7FFE7B3E10D980F99C96D01F01F01DB
:1051E000C8408007002840F1E180FFE79DF83000CB
:1051F0008007002840F1DA80FFE70F98C06D00F0CB
:105200001F0102208840089948609DF8310000067F
:10521000002818D5FFE79DF83200C00748B9FFE71E
:105220000F98406C20B1FFE70F98416C8847FFE76B
:1052300008E00F98C06B20B1FFE70F98C16B88475B
:10524000FFE7FFE7B1E09DF830008006002800F19D
:10525000A380FFE70F9800681021C4F20201884282
:1052600000F08180FFE70F9800682821C4F2020156
:10527000884278D0FFE70F9800684021C4F202010D
:10528000884270D0FFE70F9800685821C4F20201ED
:10529000884268D0FFE70F9800687021C4F20201CD
:1052A000884260D0FFE70F9800688821C4F20201AD
:1052B000884258D0FFE70F980068A021C4F202018D
:1052C000884250D0FFE70F980068B821C4F202016D
:1052D000884248D0FFE70F98006840F21041C4F2BE
:1052E000020188423FD0FFE70F98006840F2284152
:1052F000C4F20201884236D0FFE70F98006840F2FE
:105300004041C4F2020188422DD0FFE70F980068A7
:1053100040F25841C4F20201884224D0FFE70F98BE
:10532000006840F27041C4F2020188421BD0FFE7DE
:105330000F98006840F28841C4F20201884212D0FE
:10534000FFE70F98006840F2A041C4F202018842D2
:1053500009D0FFE70F98006840F2B841C4F202019B
:10536000884207D1FFE70F980168086820F0140011
:10537000086006E00F980168086820F00A000860DD
:10538000FFE70F99012081F83500FFE70F99002012
:1053900081F83400FFE7FFE70F98C06B20B1FFE70B
:1053A0000F98C16B8847FFE7FFE7C7E00D980F999B
:1053B000C96D01F01F01C8400007002840F1BC8002
:1053C000FFE79DF830000007002840F1B580FFE7B7
:1053D0000F9800681021C4F20201884200F0818019
:1053E000FFE70F9800682821C4F20201884278D0B4
:1053F000FFE70F9800684021C4F20201884270D094
:10540000FFE70F9800685821C4F20201884268D073
:10541000FFE70F9800687021C4F20201884260D053
:10542000FFE70F9800688821C4F20201884258D033
:10543000FFE70F980068A021C4F20201884250D013
:10544000FFE70F980068B821C4F20201884248D0F3
:10545000FFE70F98006840F21041C4F20201884251
:105460003FD0FFE70F98006840F22841C4F20201E4
:10547000884236D0FFE70F98006840F24041C4F2FE
:10548000020188422DD0FFE70F98006840F2584192
:10549000C4F20201884224D0FFE70F98006840F26E
:1054A0007041C4F2020188421BD0FFE70F980068E8
:1054B00040F28841C4F20201884212D0FFE70F98FF
:1054C000006840F2A041C4F20201884209D0FFE71F
:1054D0000F98006840F2B841C4F20201884207D137
:1054E000FFE70F980168086820F01C00086006E0DC
:1054F0000F980168086820F00E000860FFE70F9819
:10550000C06D00F01F01012000FA01F1089A5160FE
:105510000F9948650F9981F83500FFE70F99002032
:1055200081F83400FFE70F98C06C20B1FFE70F98B7
:10553000C16C8847FFE700E0FFE7FFE7FFE700E017
:10554000FFE7FFE710B080BD10B58EB00C9001F002
:1055500037FA0A900C9828B9FFE701208DF8370038
:1055600000F09FBC0C98016801201022C4F20202D6
:105570009142079000F0A380FFE70C98016801209A
:105580002822C4F202029142079000F09880FFE7BF
:105590000C98016801204022C4F202029142079057
:1055A00000F08D80FFE70C98016801205822C4F2BA
:1055B00002029142079000F08280FFE70C98016898
:1055C00001207022C4F202029142079077D0FFE7D7
:1055D0000C98016801208822C4F2020291420790CF
:1055E0006DD0FFE70C9801680120A022C4F20202EE
:1055F0009142079063D0FFE70C9801680120B82220
:10560000C4F202029142079059D0FFE70C9801685A
:10561000012040F21042C4F20202914207904ED0A3
:10562000FFE70C980168012040F22842C4F2020210
:105630009142079043D0FFE70C980168012040F2A7
:105640004042C4F202029142079038D0FFE70C9822
:105650000168012040F25842C4F2020291420790D0
:105660002DD0FFE70C980168012040F27042C4F28F
:1056700002029142079022D0FFE70C9801680120B6
:1056800040F28842C4F202029142079017D0FFE72D
:105690000C980168012040F2A042C4F2020291423B
:1056A00007900CD0FFE70C9800684FF64831CBF616
:1056B000FD710844B0FA80F040090790FFE70798B1
:1056C000C007002800F07981FFE70C98406A08B114
:1056D000FFE7FFE70C99022081F83500FFE70C99FE
:1056E000002081F83400FFE70C9800681021C4F214
:1056F0000201884200F08180FFE70C9800682821B1
:10570000C4F20201884278D0FFE70C98006840217B
:10571000C4F20201884270D0FFE70C98006858215B
:10572000C4F20201884268D0FFE70C98006870213B
:10573000C4F20201884260D0FFE70C98006888211B
:10574000C4F20201884258D0FFE70C980068A021FB
:10575000C4F20201884250D0FFE70C980068B821DB
:10576000C4F20201884248D0FFE70C98006840F27A
:105770001041C4F2020188423FD0FFE70C98006854
:1057800040F22841C4F20201884236D0FFE70C986B
:10579000006840F24041C4F2020188422DD0FFE788
:1057A0000C98006840F25841C4F20201884224D0AB
:1057B000FFE70C98006840F27041C4F20201884291
:1057C0001BD0FFE70C98006840F28841C4F2020148
:1057D000884212D0FFE70C98006840F2A041C4F262
:1057E0000201884209D0FFE70C98006840F2B841F6
:1057F000C4F20201884207D1FFE70C9801680868EB
:1058000020F00100086006E00C980168086820F0AC
:1058100001000860FFE7FFE70C9800680068C00718
:1058200098B1FFE701F0CCF80A99401A06280BD38B
:10583000FFE70C99202048650C99032081F835007A
:1058400001208DF837002CE3E6E70C98006800682B
:105850000B900B9848F23F01CFF6106108400B9077
:105860000C998868D1F80CC00B694A6940EA0C00B1
:10587000184310438A691043CA691043096A0143F7
:105880000B9808430B900C98406A042808D1FFE756
:105890000C99C86A096B01430B9808430B90FFE70A
:1058A00041F20000C5F6004000684FF6FF718843E2
:1058B000B0F1005F40D3FFE70C984068292807D378
:1058C000FFE70C98416801202F2906902AD3FFE7B3
:1058D0000C9840683F2807D3FFE70C9841680120E7
:1058E000432906901ED3FFE70C984068472807D34A
:1058F000FFE70C98416801204929069012D3FFE781
:105900000C98416800204F29059008D3FFE70C98B8
:1059100041680020532938BF01200590FFE7059812
:105920000690FFE70698C00728B1FFE70B9840F400
:1059300080100B90FFE7FFE70B980C99096808604F
:105940000C98006840690B900B9820F007000B90B2
:105950000C98416A0B9808430B900C98406A0428F5
:105960001AD1FFE70C98816A0B9808430B900C98AA
:10597000C06A80B1FFE70C98FBF706FD50B1FFE766
:105980000C99402048650C99012081F835008DF86C
:10599000370086E2FFE7FFE70B980C99096848613A
:1059A0000C98FBF7B5FA09900C98C06D00F01F0138
:1059B0003F2088400999886026E10C980168012001
:1059C00045F20842C5F60202914204904ED0FFE72C
:1059D0000C980168012045F21C42C5F60202914272
:1059E000049043D0FFE70C980168012045F2304253
:1059F000C5F602029142049038D0FFE70C98016886
:105A0000012045F24442C5F60202914204902DD095
:105A1000FFE70C980168012045F25842C5F60202E2
:105A20009142049022D0FFE70C980168012045F2D2
:105A30006C42C5F602029142049017D0FFE70C9821
:105A40000168012045F28042C5F6020291420490AD
:105A50000CD0FFE70C9800684AF66C31CAF2FD7171
:105A60000844B0FA80F040090490FFE70498C007AA
:105A7000002800F0BD80FFE70C980168012045F286
:105A80000842C5F60202914203904ED0FFE70C98FF
:105A90000168012045F21C42C5F6020291420390C2
:105AA00043D0FFE70C980168012045F23042C5F66B
:105AB00002029142039038D0FFE70C980168012060
:105AC00045F24442C5F60202914203902DD0FFE711
:105AD0000C980168012045F25842C5F60202914235
